{
  "_format": "hh-sol-artifact-1",
  "contractName": "BuyTransactions",
  "sourceName": "contracts/BuyTransactions.sol",
  "abi": [
    {
      "anonymous": false,
      "inputs": [
        {
          "indexed": false,
          "internalType": "address",
          "name": "BuyerAddress",
          "type": "address"
        },
        {
          "indexed": false,
          "internalType": "address",
          "name": "SellerAddress",
          "type": "address"
        },
        {
          "indexed": false,
          "internalType": "string",
          "name": "SellerName",
          "type": "string"
        },
        {
          "indexed": false,
          "internalType": "string",
          "name": "SellerPlantAdress",
          "type": "string"
        },
        {
          "indexed": false,
          "internalType": "string",
          "name": "SellerLat",
          "type": "string"
        },
        {
          "indexed": false,
          "internalType": "string",
          "name": "SellerLong",
          "type": "string"
        },
        {
          "indexed": false,
          "internalType": "uint256",
          "name": "Units",
          "type": "uint256"
        },
        {
          "indexed": false,
          "internalType": "uint256",
          "name": "PricePerUnit",
          "type": "uint256"
        },
        {
          "indexed": false,
          "internalType": "uint256",
          "name": "TotalPrice",
          "type": "uint256"
        },
        {
          "indexed": false,
          "internalType": "uint256",
          "name": "timestamp",
          "type": "uint256"
        }
      ],
      "name": "TransferEnergy",
      "type": "event"
    },
    {
      "inputs": [
        {
          "internalType": "address payable",
          "name": "SellerAddress",
          "type": "address"
        },
        {
          "internalType": "string",
          "name": "SellerName",
          "type": "string"
        },
        {
          "internalType": "string",
          "name": "SellerPlantAddress",
          "type": "string"
        },
        {
          "internalType": "string",
          "name": "SellerLat",
          "type": "string"
        },
        {
          "internalType": "string",
          "name": "SellerLong",
          "type": "string"
        },
        {
          "internalType": "uint256",
          "name": "Units",
          "type": "uint256"
        },
        {
          "internalType": "uint256",
          "name": "PricePerUnit",
          "type": "uint256"
        },
        {
          "internalType": "uint256",
          "name": "TotalPrice",
          "type": "uint256"
        }
      ],
      "name": "addVal",
      "outputs": [],
      "stateMutability": "nonpayable",
      "type": "function"
    },
    {
      "inputs": [],
      "name": "getAll",
      "outputs": [
        {
          "components": [
            {
              "internalType": "address",
              "name": "BuyerAddress",
              "type": "address"
            },
            {
              "internalType": "address",
              "name": "SellerAddress",
              "type": "address"
            },
            {
              "internalType": "string",
              "name": "SellerName",
              "type": "string"
            },
            {
              "internalType": "string",
              "name": "SellerPlantAdress",
              "type": "string"
            },
            {
              "internalType": "string",
              "name": "SellerLat",
              "type": "string"
            },
            {
              "internalType": "string",
              "name": "SellerLong",
              "type": "string"
            },
            {
              "internalType": "uint256",
              "name": "Units",
              "type": "uint256"
            },
            {
              "internalType": "uint256",
              "name": "PricePerUnit",
              "type": "uint256"
            },
            {
              "internalType": "uint256",
              "name": "TotalPrice",
              "type": "uint256"
            },
            {
              "internalType": "uint256",
              "name": "timestamp",
              "type": "uint256"
            }
          ],
          "internalType": "struct BuyTransactions.EnergyStruct[]",
          "name": "",
          "type": "tuple[]"
        }
      ],
      "stateMutability": "view",
      "type": "function"
    },
    {
      "inputs": [],
      "name": "getCount",
      "outputs": [
        {
          "internalType": "uint256",
          "name": "",
          "type": "uint256"
        }
      ],
      "stateMutability": "view",
      "type": "function"
    }
  ],
  "bytecode": "0x60806040526000805534801561001457600080fd5b50610ee2806100246000396000f3fe608060405234801561001057600080fd5b50600436106100415760003560e01c80631b9484e71461004657806353ed514314610062578063a87d942c14610080575b600080fd5b610060600480360381019061005b919061078f565b61009e565b005b61006a6102d5565b6040516100779190610b8e565b60405180910390f35b610088610651565b6040516100959190610bb0565b60405180910390f35b60016000808282546100b09190610c92565b9250508190555060016040518061014001604052803373ffffffffffffffffffffffffffffffffffffffff1681526020018a73ffffffffffffffffffffffffffffffffffffffff1681526020018981526020018881526020018781526020018681526020018581526020018481526020018381526020014281525090806001815401808255809150506001900390600052602060002090600a020160009091909190915060008201518160000160006101000a81548173ffffffffffffffffffffffffffffffffffffffff021916908373ffffffffffffffffffffffffffffffffffffffff16021790555060208201518160010160006101000a81548173ffffffffffffffffffffffffffffffffffffffff021916908373ffffffffffffffffffffffffffffffffffffffff16021790555060408201518160020190805190602001906101fe92919061065a565b50606082015181600301908051906020019061021b92919061065a565b50608082015181600401908051906020019061023892919061065a565b5060a082015181600501908051906020019061025592919061065a565b5060c0820151816006015560e082015181600701556101008201518160080155610120820151816009015550507f3f6e37926407cb7f6e6042dc4feec0444a47876a225668fad47ab9b06eb4cc32338989898989898989426040516102c39a99989796959493929190610ad6565b60405180910390a15050505050505050565b60606001805480602002602001604051908101604052809291908181526020016000905b8282101561064857838290600052602060002090600a0201604051806101400160405290816000820160009054906101000a900473ffffffffffffffffffffffffffffffffffffffff1673ffffffffffffffffffffffffffffffffffffffff1673ffffffffffffffffffffffffffffffffffffffff1681526020016001820160009054906101000a900473ffffffffffffffffffffffffffffffffffffffff1673ffffffffffffffffffffffffffffffffffffffff1673ffffffffffffffffffffffffffffffffffffffff1681526020016002820180546103d990610dae565b80601f016020809104026020016040519081016040528092919081815260200182805461040590610dae565b80156104525780601f1061042757610100808354040283529160200191610452565b820191906000526020600020905b81548152906001019060200180831161043557829003601f168201915b5050505050815260200160038201805461046b90610dae565b80601f016020809104026020016040519081016040528092919081815260200182805461049790610dae565b80156104e45780601f106104b9576101008083540402835291602001916104e4565b820191906000526020600020905b8154815290600101906020018083116104c757829003601f168201915b505050505081526020016004820180546104fd90610dae565b80601f016020809104026020016040519081016040528092919081815260200182805461052990610dae565b80156105765780601f1061054b57610100808354040283529160200191610576565b820191906000526020600020905b81548152906001019060200180831161055957829003601f168201915b5050505050815260200160058201805461058f90610dae565b80601f01602080910402602001604051908101604052809291908181526020018280546105bb90610dae565b80156106085780601f106105dd57610100808354040283529160200191610608565b820191906000526020600020905b8154815290600101906020018083116105eb57829003601f168201915b50505050508152602001600682015481526020016007820154815260200160088201548152602001600982015481525050815260200190600101906102f9565b50505050905090565b60008054905090565b82805461066690610dae565b90600052602060002090601f01602090048101928261068857600085556106cf565b82601f106106a157805160ff19168380011785556106cf565b828001600101855582156106cf579182015b828111156106ce5782518255916020019190600101906106b3565b5b5090506106dc91906106e0565b5090565b5b808211156106f95760008160009055506001016106e1565b5090565b600061071061070b84610bfc565b610bcb565b90508281526020810184848401111561072857600080fd5b610733848285610d6c565b509392505050565b60008135905061074a81610e7e565b92915050565b600082601f83011261076157600080fd5b81356107718482602086016106fd565b91505092915050565b60008135905061078981610e95565b92915050565b600080600080600080600080610100898b0312156107ac57600080fd5b60006107ba8b828c0161073b565b985050602089013567ffffffffffffffff8111156107d757600080fd5b6107e38b828c01610750565b975050604089013567ffffffffffffffff81111561080057600080fd5b61080c8b828c01610750565b965050606089013567ffffffffffffffff81111561082957600080fd5b6108358b828c01610750565b955050608089013567ffffffffffffffff81111561085257600080fd5b61085e8b828c01610750565b94505060a061086f8b828c0161077a565b93505060c06108808b828c0161077a565b92505060e06108918b828c0161077a565b9150509295985092959890939650565b60006108ad83836109c9565b905092915050565b6108be81610d36565b82525050565b6108cd81610ce8565b82525050565b6108dc81610ce8565b82525050565b60006108ed82610c3c565b6108f78185610c5f565b93508360208202850161090985610c2c565b8060005b85811015610945578484038952815161092685826108a1565b945061093183610c52565b925060208a0199505060018101905061090d565b50829750879550505050505092915050565b600061096282610c47565b61096c8185610c70565b935061097c818560208601610d7b565b61098581610e6d565b840191505092915050565b600061099b82610c47565b6109a58185610c81565b93506109b5818560208601610d7b565b6109be81610e6d565b840191505092915050565b6000610140830160008301516109e260008601826108c4565b5060208301516109f560208601826108c4565b5060408301518482036040860152610a0d8282610957565b91505060608301518482036060860152610a278282610957565b91505060808301518482036080860152610a418282610957565b91505060a083015184820360a0860152610a5b8282610957565b91505060c0830151610a7060c0860182610ab8565b5060e0830151610a8360e0860182610ab8565b50610100830151610a98610100860182610ab8565b50610120830151610aad610120860182610ab8565b508091505092915050565b610ac181610d2c565b82525050565b610ad081610d2c565b82525050565b600061014082019050610aec600083018d6108d3565b610af9602083018c6108b5565b8181036040830152610b0b818b610990565b90508181036060830152610b1f818a610990565b90508181036080830152610b338189610990565b905081810360a0830152610b478188610990565b9050610b5660c0830187610ac7565b610b6360e0830186610ac7565b610b71610100830185610ac7565b610b7f610120830184610ac7565b9b9a5050505050505050505050565b60006020820190508181036000830152610ba881846108e2565b905092915050565b6000602082019050610bc56000830184610ac7565b92915050565b6000604051905081810181811067ffffffffffffffff82111715610bf257610bf1610e3e565b5b8060405250919050565b600067ffffffffffffffff821115610c1757610c16610e3e565b5b601f19601f8301169050602081019050919050565b6000819050602082019050919050565b600081519050919050565b600081519050919050565b6000602082019050919050565b600082825260208201905092915050565b600082825260208201905092915050565b600082825260208201905092915050565b6000610c9d82610d2c565b9150610ca883610d2c565b9250827fffffffffffffffffffffffffffffffffffffffffffffffffffffffffffffffff03821115610cdd57610cdc610de0565b5b828201905092915050565b6000610cf382610d0c565b9050919050565b6000610d0582610d0c565b9050919050565b600073ffffffffffffffffffffffffffffffffffffffff82169050919050565b6000819050919050565b6000610d4182610d48565b9050919050565b6000610d5382610d5a565b9050919050565b6000610d6582610d0c565b9050919050565b82818337600083830152505050565b60005b83811015610d99578082015181840152602081019050610d7e565b83811115610da8576000848401525b50505050565b60006002820490506001821680610dc657607f821691505b60208210811415610dda57610dd9610e0f565b5b50919050565b7f4e487b7100000000000000000000000000000000000000000000000000000000600052601160045260246000fd5b7f4e487b7100000000000000000000000000000000000000000000000000000000600052602260045260246000fd5b7f4e487b7100000000000000000000000000000000000000000000000000000000600052604160045260246000fd5b6000601f19601f8301169050919050565b610e8781610cfa565b8114610e9257600080fd5b50565b610e9e81610d2c565b8114610ea957600080fd5b5056fea26469706673582212201c471682f5086567a4d63eda8c971e3c8661d05694a31e5c7369931ae05b894564736f6c63430008000033",
  "linkReferences": {},
  "deployedLinkReferences": {}
}