{
  "_format": "hh-sol-artifact-1",
  "contractName": "Energy",
  "sourceName": "contracts/Energy.sol",
  "abi": [
    {
      "anonymous": false,
      "inputs": [
        {
          "indexed": false,
          "internalType": "address",
          "name": "SenderAddress",
          "type": "address"
        },
        {
          "indexed": false,
          "internalType": "string",
          "name": "SenderName",
          "type": "string"
        },
        {
          "indexed": false,
          "internalType": "string",
          "name": "PlantAdress",
          "type": "string"
        },
        {
          "indexed": false,
          "internalType": "string",
          "name": "Lat",
          "type": "string"
        },
        {
          "indexed": false,
          "internalType": "string",
          "name": "Long",
          "type": "string"
        },
        {
          "indexed": false,
          "internalType": "uint256",
          "name": "Units",
          "type": "uint256"
        },
        {
          "indexed": false,
          "internalType": "uint256",
          "name": "PricePerUnit",
          "type": "uint256"
        },
        {
          "indexed": false,
          "internalType": "string",
          "name": "desc",
          "type": "string"
        },
        {
          "indexed": false,
          "internalType": "uint256",
          "name": "timestamp",
          "type": "uint256"
        }
      ],
      "name": "TransferEnergy",
      "type": "event"
    },
    {
      "inputs": [
        {
          "internalType": "string",
          "name": "SenderName",
          "type": "string"
        },
        {
          "internalType": "string",
          "name": "PlantAddress",
          "type": "string"
        },
        {
          "internalType": "string",
          "name": "Lat",
          "type": "string"
        },
        {
          "internalType": "string",
          "name": "Long",
          "type": "string"
        },
        {
          "internalType": "uint256",
          "name": "Units",
          "type": "uint256"
        },
        {
          "internalType": "uint256",
          "name": "PricePerUnit",
          "type": "uint256"
        },
        {
          "internalType": "string",
          "name": "desc",
          "type": "string"
        }
      ],
      "name": "addVal",
      "outputs": [],
      "stateMutability": "nonpayable",
      "type": "function"
    },
    {
      "inputs": [],
      "name": "getAll",
      "outputs": [
        {
          "components": [
            {
              "internalType": "address",
              "name": "SenderAddress",
              "type": "address"
            },
            {
              "internalType": "string",
              "name": "SenderName",
              "type": "string"
            },
            {
              "internalType": "string",
              "name": "PlantAdress",
              "type": "string"
            },
            {
              "internalType": "string",
              "name": "Lat",
              "type": "string"
            },
            {
              "internalType": "string",
              "name": "Long",
              "type": "string"
            },
            {
              "internalType": "uint256",
              "name": "Units",
              "type": "uint256"
            },
            {
              "internalType": "uint256",
              "name": "PricePerUnit",
              "type": "uint256"
            },
            {
              "internalType": "string",
              "name": "desc",
              "type": "string"
            },
            {
              "internalType": "uint256",
              "name": "timestamp",
              "type": "uint256"
            }
          ],
          "internalType": "struct Energy.EnergyStruct[]",
          "name": "",
          "type": "tuple[]"
        }
      ],
      "stateMutability": "view",
      "type": "function"
    },
    {
      "inputs": [],
      "name": "getCount",
      "outputs": [
        {
          "internalType": "uint256",
          "name": "",
          "type": "uint256"
        }
      ],
      "stateMutability": "view",
      "type": "function"
    }
  ],
  "bytecode": "0x60806040526000805534801561001457600080fd5b50610e2b806100246000396000f3fe608060405234801561001057600080fd5b50600436106100415760003560e01c806333b2b9cf1461004657806353ed514314610062578063a87d942c14610080575b600080fd5b610060600480360381019061005b9190610758565b61009e565b005b61006a610281565b6040516100779190610b36565b60405180910390f35b61008861062f565b6040516100959190610b58565b60405180910390f35b60016000808282546100b09190610c3a565b9250508190555060016040518061012001604052803373ffffffffffffffffffffffffffffffffffffffff16815260200189815260200188815260200187815260200186815260200185815260200184815260200183815260200142815250908060018154018082558091505060019003906000526020600020906009020160009091909190915060008201518160000160006101000a81548173ffffffffffffffffffffffffffffffffffffffff021916908373ffffffffffffffffffffffffffffffffffffffff160217905550602082015181600101908051906020019061019b929190610638565b5060408201518160020190805190602001906101b8929190610638565b5060608201518160030190805190602001906101d5929190610638565b5060808201518160040190805190602001906101f2929190610638565b5060a0820151816005015560c0820151816006015560e0820151816007019080519060200190610223929190610638565b50610100820151816008015550507f893c621a4225ccaaa70119f22f42a673327194a5acf11948bc6ce3cdf3a7e79533888888888888884260405161027099989796959493929190610a86565b60405180910390a150505050505050565b60606001805480602002602001604051908101604052809291908181526020016000905b828210156106265783829060005260206000209060090201604051806101200160405290816000820160009054906101000a900473ffffffffffffffffffffffffffffffffffffffff1673ffffffffffffffffffffffffffffffffffffffff1673ffffffffffffffffffffffffffffffffffffffff16815260200160018201805461032f90610d0e565b80601f016020809104026020016040519081016040528092919081815260200182805461035b90610d0e565b80156103a85780601f1061037d576101008083540402835291602001916103a8565b820191906000526020600020905b81548152906001019060200180831161038b57829003601f168201915b505050505081526020016002820180546103c190610d0e565b80601f01602080910402602001604051908101604052809291908181526020018280546103ed90610d0e565b801561043a5780601f1061040f5761010080835404028352916020019161043a565b820191906000526020600020905b81548152906001019060200180831161041d57829003601f168201915b5050505050815260200160038201805461045390610d0e565b80601f016020809104026020016040519081016040528092919081815260200182805461047f90610d0e565b80156104cc5780601f106104a1576101008083540402835291602001916104cc565b820191906000526020600020905b8154815290600101906020018083116104af57829003601f168201915b505050505081526020016004820180546104e590610d0e565b80601f016020809104026020016040519081016040528092919081815260200182805461051190610d0e565b801561055e5780601f106105335761010080835404028352916020019161055e565b820191906000526020600020905b81548152906001019060200180831161054157829003601f168201915b50505050508152602001600582015481526020016006820154815260200160078201805461058b90610d0e565b80601f01602080910402602001604051908101604052809291908181526020018280546105b790610d0e565b80156106045780601f106105d957610100808354040283529160200191610604565b820191906000526020600020905b8154815290600101906020018083116105e757829003601f168201915b50505050508152602001600882015481525050815260200190600101906102a5565b50505050905090565b60008054905090565b82805461064490610d0e565b90600052602060002090601f01602090048101928261066657600085556106ad565b82601f1061067f57805160ff19168380011785556106ad565b828001600101855582156106ad579182015b828111156106ac578251825591602001919060010190610691565b5b5090506106ba91906106be565b5090565b5b808211156106d75760008160009055506001016106bf565b5090565b60006106ee6106e984610ba4565b610b73565b90508281526020810184848401111561070657600080fd5b610711848285610ccc565b509392505050565b600082601f83011261072a57600080fd5b813561073a8482602086016106db565b91505092915050565b60008135905061075281610dde565b92915050565b600080600080600080600060e0888a03121561077357600080fd5b600088013567ffffffffffffffff81111561078d57600080fd5b6107998a828b01610719565b975050602088013567ffffffffffffffff8111156107b657600080fd5b6107c28a828b01610719565b965050604088013567ffffffffffffffff8111156107df57600080fd5b6107eb8a828b01610719565b955050606088013567ffffffffffffffff81111561080857600080fd5b6108148a828b01610719565b94505060806108258a828b01610743565b93505060a06108368a828b01610743565b92505060c088013567ffffffffffffffff81111561085357600080fd5b61085f8a828b01610719565b91505092959891949750929550565b600061087a8383610987565b905092915050565b61088b81610c90565b82525050565b61089a81610c90565b82525050565b60006108ab82610be4565b6108b58185610c07565b9350836020820285016108c785610bd4565b8060005b8581101561090357848403895281516108e4858261086e565b94506108ef83610bfa565b925060208a019950506001810190506108cb565b50829750879550505050505092915050565b600061092082610bef565b61092a8185610c18565b935061093a818560208601610cdb565b61094381610dcd565b840191505092915050565b600061095982610bef565b6109638185610c29565b9350610973818560208601610cdb565b61097c81610dcd565b840191505092915050565b6000610120830160008301516109a06000860182610882565b50602083015184820360208601526109b88282610915565b915050604083015184820360408601526109d28282610915565b915050606083015184820360608601526109ec8282610915565b91505060808301518482036080860152610a068282610915565b91505060a0830151610a1b60a0860182610a68565b5060c0830151610a2e60c0860182610a68565b5060e083015184820360e0860152610a468282610915565b915050610100830151610a5d610100860182610a68565b508091505092915050565b610a7181610cc2565b82525050565b610a8081610cc2565b82525050565b600061012082019050610a9c600083018c610891565b8181036020830152610aae818b61094e565b90508181036040830152610ac2818a61094e565b90508181036060830152610ad6818961094e565b90508181036080830152610aea818861094e565b9050610af960a0830187610a77565b610b0660c0830186610a77565b81810360e0830152610b18818561094e565b9050610b28610100830184610a77565b9a9950505050505050505050565b60006020820190508181036000830152610b5081846108a0565b905092915050565b6000602082019050610b6d6000830184610a77565b92915050565b6000604051905081810181811067ffffffffffffffff82111715610b9a57610b99610d9e565b5b8060405250919050565b600067ffffffffffffffff821115610bbf57610bbe610d9e565b5b601f19601f8301169050602081019050919050565b6000819050602082019050919050565b600081519050919050565b600081519050919050565b6000602082019050919050565b600082825260208201905092915050565b600082825260208201905092915050565b600082825260208201905092915050565b6000610c4582610cc2565b9150610c5083610cc2565b9250827fffffffffffffffffffffffffffffffffffffffffffffffffffffffffffffffff03821115610c8557610c84610d40565b5b828201905092915050565b6000610c9b82610ca2565b9050919050565b600073ffffffffffffffffffffffffffffffffffffffff82169050919050565b6000819050919050565b82818337600083830152505050565b60005b83811015610cf9578082015181840152602081019050610cde565b83811115610d08576000848401525b50505050565b60006002820490506001821680610d2657607f821691505b60208210811415610d3a57610d39610d6f565b5b50919050565b7f4e487b7100000000000000000000000000000000000000000000000000000000600052601160045260246000fd5b7f4e487b7100000000000000000000000000000000000000000000000000000000600052602260045260246000fd5b7f4e487b7100000000000000000000000000000000000000000000000000000000600052604160045260246000fd5b6000601f19601f8301169050919050565b610de781610cc2565b8114610df257600080fd5b5056fea26469706673582212204efaeea394498426005f134c201a761b504ae4dfeda72cadefdde9a0e4d0e94264736f6c63430008000033",
  "linkReferences": {},
  "deployedLinkReferences": {}
}