{
  "_format": "hh-sol-artifact-1",
  "contractName": "Energy",
  "sourceName": "contracts/Energy.sol",
  "abi": [
    {
      "anonymous": false,
      "inputs": [
        {
          "indexed": false,
          "internalType": "address",
          "name": "SenderAddress",
          "type": "address"
        },
        {
          "indexed": false,
          "internalType": "string",
          "name": "SenderName",
          "type": "string"
        },
        {
          "indexed": false,
          "internalType": "string",
          "name": "PlantAdress",
          "type": "string"
        },
        {
          "indexed": false,
          "internalType": "string",
          "name": "Lat",
          "type": "string"
        },
        {
          "indexed": false,
          "internalType": "string",
          "name": "Long",
          "type": "string"
        },
        {
          "indexed": false,
          "internalType": "uint256",
          "name": "Units",
          "type": "uint256"
        },
        {
          "indexed": false,
          "internalType": "uint256",
          "name": "PricePerUnit",
          "type": "uint256"
        },
        {
          "indexed": false,
          "internalType": "string",
          "name": "desc",
          "type": "string"
        },
        {
          "indexed": false,
          "internalType": "uint256",
          "name": "timestamp",
          "type": "uint256"
        }
      ],
      "name": "TransferEnergy",
      "type": "event"
    },
    {
      "anonymous": false,
      "inputs": [
        {
          "indexed": false,
          "internalType": "uint256",
          "name": "index",
          "type": "uint256"
        }
      ],
      "name": "UpdateUnits",
      "type": "event"
    },
    {
      "inputs": [
        {
          "internalType": "string",
          "name": "SenderName",
          "type": "string"
        },
        {
          "internalType": "string",
          "name": "PlantAddress",
          "type": "string"
        },
        {
          "internalType": "string",
          "name": "Lat",
          "type": "string"
        },
        {
          "internalType": "string",
          "name": "Long",
          "type": "string"
        },
        {
          "internalType": "uint256",
          "name": "Units",
          "type": "uint256"
        },
        {
          "internalType": "uint256",
          "name": "PricePerUnit",
          "type": "uint256"
        },
        {
          "internalType": "string",
          "name": "desc",
          "type": "string"
        }
      ],
      "name": "addVal",
      "outputs": [],
      "stateMutability": "nonpayable",
      "type": "function"
    },
    {
      "inputs": [],
      "name": "getAll",
      "outputs": [
        {
          "components": [
            {
              "internalType": "address",
              "name": "SenderAddress",
              "type": "address"
            },
            {
              "internalType": "string",
              "name": "SenderName",
              "type": "string"
            },
            {
              "internalType": "string",
              "name": "PlantAdress",
              "type": "string"
            },
            {
              "internalType": "string",
              "name": "Lat",
              "type": "string"
            },
            {
              "internalType": "string",
              "name": "Long",
              "type": "string"
            },
            {
              "internalType": "uint256",
              "name": "Units",
              "type": "uint256"
            },
            {
              "internalType": "uint256",
              "name": "PricePerUnit",
              "type": "uint256"
            },
            {
              "internalType": "string",
              "name": "desc",
              "type": "string"
            },
            {
              "internalType": "uint256",
              "name": "timestamp",
              "type": "uint256"
            }
          ],
          "internalType": "struct Energy.EnergyStruct[]",
          "name": "",
          "type": "tuple[]"
        }
      ],
      "stateMutability": "view",
      "type": "function"
    },
    {
      "inputs": [],
      "name": "getCount",
      "outputs": [
        {
          "internalType": "uint256",
          "name": "",
          "type": "uint256"
        }
      ],
      "stateMutability": "view",
      "type": "function"
    },
    {
      "inputs": [
        {
          "internalType": "address payable",
          "name": "Address",
          "type": "address"
        },
        {
          "internalType": "string",
          "name": "SenderName",
          "type": "string"
        },
        {
          "internalType": "string",
          "name": "PlantAddress",
          "type": "string"
        },
        {
          "internalType": "string",
          "name": "Lat",
          "type": "string"
        },
        {
          "internalType": "string",
          "name": "Long",
          "type": "string"
        },
        {
          "internalType": "uint256",
          "name": "Units",
          "type": "uint256"
        },
        {
          "internalType": "uint256",
          "name": "PricePerUnit",
          "type": "uint256"
        },
        {
          "internalType": "string",
          "name": "desc",
          "type": "string"
        },
        {
          "internalType": "uint256",
          "name": "Index",
          "type": "uint256"
        }
      ],
      "name": "updateUnits",
      "outputs": [],
      "stateMutability": "nonpayable",
      "type": "function"
    }
  ],
  "bytecode": "0x60806040526000805534801561001457600080fd5b50611532806100246000396000f3fe608060405234801561001057600080fd5b506004361061004c5760003560e01c806333b2b9cf1461005157806353ed51431461006d578063a87d942c1461008b578063e4ca5d56146100a9575b600080fd5b61006b60048036038101906100669190610e02565b6100c5565b005b6100756102a8565b60405161008291906111e0565b60405180910390f35b610093610656565b6040516100a09190611202565b60405180910390f35b6100c360048036038101906100be9190610cc4565b61065f565b005b60016000808282546100d791906112e4565b9250508190555060016040518061012001604052803373ffffffffffffffffffffffffffffffffffffffff16815260200189815260200188815260200187815260200186815260200185815260200184815260200183815260200142815250908060018154018082558091505060019003906000526020600020906009020160009091909190915060008201518160000160006101000a81548173ffffffffffffffffffffffffffffffffffffffff021916908373ffffffffffffffffffffffffffffffffffffffff16021790555060208201518160010190805190602001906101c2929190610ac2565b5060408201518160020190805190602001906101df929190610ac2565b5060608201518160030190805190602001906101fc929190610ac2565b506080820151816004019080519060200190610219929190610ac2565b5060a0820151816005015560c0820151816006015560e082015181600701908051906020019061024a929190610ac2565b50610100820151816008015550507f893c621a4225ccaaa70119f22f42a673327194a5acf11948bc6ce3cdf3a7e79533888888888888884260405161029799989796959493929190611130565b60405180910390a150505050505050565b60606001805480602002602001604051908101604052809291908181526020016000905b8282101561064d5783829060005260206000209060090201604051806101200160405290816000820160009054906101000a900473ffffffffffffffffffffffffffffffffffffffff1673ffffffffffffffffffffffffffffffffffffffff1673ffffffffffffffffffffffffffffffffffffffff168152602001600182018054610356906113fe565b80601f0160208091040260200160405190810160405280929190818152602001828054610382906113fe565b80156103cf5780601f106103a4576101008083540402835291602001916103cf565b820191906000526020600020905b8154815290600101906020018083116103b257829003601f168201915b505050505081526020016002820180546103e8906113fe565b80601f0160208091040260200160405190810160405280929190818152602001828054610414906113fe565b80156104615780601f1061043657610100808354040283529160200191610461565b820191906000526020600020905b81548152906001019060200180831161044457829003601f168201915b5050505050815260200160038201805461047a906113fe565b80601f01602080910402602001604051908101604052809291908181526020018280546104a6906113fe565b80156104f35780601f106104c8576101008083540402835291602001916104f3565b820191906000526020600020905b8154815290600101906020018083116104d657829003601f168201915b5050505050815260200160048201805461050c906113fe565b80601f0160208091040260200160405190810160405280929190818152602001828054610538906113fe565b80156105855780601f1061055a57610100808354040283529160200191610585565b820191906000526020600020905b81548152906001019060200180831161056857829003601f168201915b5050505050815260200160058201548152602001600682015481526020016007820180546105b2906113fe565b80601f01602080910402602001604051908101604052809291908181526020018280546105de906113fe565b801561062b5780601f106106005761010080835404028352916020019161062b565b820191906000526020600020905b81548152906001019060200180831161060e57829003601f168201915b50505050508152602001600882015481525050815260200190600101906102cc565b50505050905090565b60008054905090565b60016040518061012001604052808b73ffffffffffffffffffffffffffffffffffffffff1681526020018a815260200189815260200188815260200187815260200186815260200185815260200184815260200142815250908060018154018082558091505060019003906000526020600020906009020160009091909190915060008201518160000160006101000a81548173ffffffffffffffffffffffffffffffffffffffff021916908373ffffffffffffffffffffffffffffffffffffffff1602179055506020820151816001019080519060200190610743929190610ac2565b506040820151816002019080519060200190610760929190610ac2565b50606082015181600301908051906020019061077d929190610ac2565b50608082015181600401908051906020019061079a929190610ac2565b5060a0820151816005015560c0820151816006015560e08201518160070190805190602001906107cb929190610ac2565b506101008201518160080155505060018080805490506107eb919061133a565b81548110610822577f4e487b7100000000000000000000000000000000000000000000000000000000600052603260045260246000fd5b90600052602060002090600902016001828154811061086a577f4e487b7100000000000000000000000000000000000000000000000000000000600052603260045260246000fd5b90600052602060002090600902016000820160009054906101000a900473ffffffffffffffffffffffffffffffffffffffff168160000160006101000a81548173ffffffffffffffffffffffffffffffffffffffff021916908373ffffffffffffffffffffffffffffffffffffffff16021790555060018201816001019080546108f3906113fe565b6108fe929190610b48565b506002820181600201908054610913906113fe565b61091e929190610b48565b506003820181600301908054610933906113fe565b61093e929190610b48565b506004820181600401908054610953906113fe565b61095e929190610b48565b5060058201548160050155600682015481600601556007820181600701908054610987906113fe565b610992929190610b48565b506008820154816008015590505060018054806109d8577f4e487b7100000000000000000000000000000000000000000000000000000000600052603160045260246000fd5b6001900381819060005260206000209060090201600080820160006101000a81549073ffffffffffffffffffffffffffffffffffffffff0219169055600182016000610a249190610bd5565b600282016000610a349190610bd5565b600382016000610a449190610bd5565b600482016000610a549190610bd5565b60058201600090556006820160009055600782016000610a749190610bd5565b6008820160009055505090557fe0e798e947060def1d6ca13687c747dd9f95871dd3b81a95cfe197566fb9dd4881604051610aaf9190611202565b60405180910390a1505050505050505050565b828054610ace906113fe565b90600052602060002090601f016020900481019282610af05760008555610b37565b82601f10610b0957805160ff1916838001178555610b37565b82800160010185558215610b37579182015b82811115610b36578251825591602001919060010190610b1b565b5b509050610b449190610c15565b5090565b828054610b54906113fe565b90600052602060002090601f016020900481019282610b765760008555610bc4565b82601f10610b875780548555610bc4565b82800160010185558215610bc457600052602060002091601f016020900482015b82811115610bc3578254825591600101919060010190610ba8565b5b509050610bd19190610c15565b5090565b508054610be1906113fe565b6000825580601f10610bf35750610c12565b601f016020900490600052602060002090810190610c119190610c15565b5b50565b5b80821115610c2e576000816000905550600101610c16565b5090565b6000610c45610c408461124e565b61121d565b905082815260208101848484011115610c5d57600080fd5b610c688482856113bc565b509392505050565b600081359050610c7f816114ce565b92915050565b600082601f830112610c9657600080fd5b8135610ca6848260208601610c32565b91505092915050565b600081359050610cbe816114e5565b92915050565b60008060008060008060008060006101208a8c031215610ce357600080fd5b6000610cf18c828d01610c70565b99505060208a013567ffffffffffffffff811115610d0e57600080fd5b610d1a8c828d01610c85565b98505060408a013567ffffffffffffffff811115610d3757600080fd5b610d438c828d01610c85565b97505060608a013567ffffffffffffffff811115610d6057600080fd5b610d6c8c828d01610c85565b96505060808a013567ffffffffffffffff811115610d8957600080fd5b610d958c828d01610c85565b95505060a0610da68c828d01610caf565b94505060c0610db78c828d01610caf565b93505060e08a013567ffffffffffffffff811115610dd457600080fd5b610de08c828d01610c85565b925050610100610df28c828d01610caf565b9150509295985092959850929598565b600080600080600080600060e0888a031215610e1d57600080fd5b600088013567ffffffffffffffff811115610e3757600080fd5b610e438a828b01610c85565b975050602088013567ffffffffffffffff811115610e6057600080fd5b610e6c8a828b01610c85565b965050604088013567ffffffffffffffff811115610e8957600080fd5b610e958a828b01610c85565b955050606088013567ffffffffffffffff811115610eb257600080fd5b610ebe8a828b01610c85565b9450506080610ecf8a828b01610caf565b93505060a0610ee08a828b01610caf565b92505060c088013567ffffffffffffffff811115610efd57600080fd5b610f098a828b01610c85565b91505092959891949750929550565b6000610f248383611031565b905092915050565b610f358161136e565b82525050565b610f448161136e565b82525050565b6000610f558261128e565b610f5f81856112b1565b935083602082028501610f718561127e565b8060005b85811015610fad5784840389528151610f8e8582610f18565b9450610f99836112a4565b925060208a01995050600181019050610f75565b50829750879550505050505092915050565b6000610fca82611299565b610fd481856112c2565b9350610fe48185602086016113cb565b610fed816114bd565b840191505092915050565b600061100382611299565b61100d81856112d3565b935061101d8185602086016113cb565b611026816114bd565b840191505092915050565b60006101208301600083015161104a6000860182610f2c565b50602083015184820360208601526110628282610fbf565b9150506040830151848203604086015261107c8282610fbf565b915050606083015184820360608601526110968282610fbf565b915050608083015184820360808601526110b08282610fbf565b91505060a08301516110c560a0860182611112565b5060c08301516110d860c0860182611112565b5060e083015184820360e08601526110f08282610fbf565b915050610100830151611107610100860182611112565b508091505092915050565b61111b816113b2565b82525050565b61112a816113b2565b82525050565b600061012082019050611146600083018c610f3b565b8181036020830152611158818b610ff8565b9050818103604083015261116c818a610ff8565b905081810360608301526111808189610ff8565b905081810360808301526111948188610ff8565b90506111a360a0830187611121565b6111b060c0830186611121565b81810360e08301526111c28185610ff8565b90506111d2610100830184611121565b9a9950505050505050505050565b600060208201905081810360008301526111fa8184610f4a565b905092915050565b60006020820190506112176000830184611121565b92915050565b6000604051905081810181811067ffffffffffffffff821117156112445761124361148e565b5b8060405250919050565b600067ffffffffffffffff8211156112695761126861148e565b5b601f19601f8301169050602081019050919050565b6000819050602082019050919050565b600081519050919050565b600081519050919050565b6000602082019050919050565b600082825260208201905092915050565b600082825260208201905092915050565b600082825260208201905092915050565b60006112ef826113b2565b91506112fa836113b2565b9250827fffffffffffffffffffffffffffffffffffffffffffffffffffffffffffffffff0382111561132f5761132e611430565b5b828201905092915050565b6000611345826113b2565b9150611350836113b2565b92508282101561136357611362611430565b5b828203905092915050565b600061137982611392565b9050919050565b600061138b82611392565b9050919050565b600073ffffffffffffffffffffffffffffffffffffffff82169050919050565b6000819050919050565b82818337600083830152505050565b60005b838110156113e95780820151818401526020810190506113ce565b838111156113f8576000848401525b50505050565b6000600282049050600182168061141657607f821691505b6020821081141561142a5761142961145f565b5b50919050565b7f4e487b7100000000000000000000000000000000000000000000000000000000600052601160045260246000fd5b7f4e487b7100000000000000000000000000000000000000000000000000000000600052602260045260246000fd5b7f4e487b7100000000000000000000000000000000000000000000000000000000600052604160045260246000fd5b6000601f19601f8301169050919050565b6114d781611380565b81146114e257600080fd5b50565b6114ee816113b2565b81146114f957600080fd5b5056fea264697066735822122066d763999346eefa5bca23ea22a94454335b074113c36b7cddc80721bc13c3e164736f6c63430008000033",
  "linkReferences": {},
  "deployedLinkReferences": {}
}