{
  "_format": "hh-sol-artifact-1",
  "contractName": "Node",
  "sourceName": "contracts/Node.sol",
  "abi": [
    {
      "anonymous": false,
      "inputs": [
        {
          "indexed": false,
          "internalType": "address",
          "name": "SenderAddress",
          "type": "address"
        },
        {
          "indexed": false,
          "internalType": "string",
          "name": "SenderName",
          "type": "string"
        },
        {
          "indexed": false,
          "internalType": "string",
          "name": "PlantAdress",
          "type": "string"
        },
        {
          "indexed": false,
          "internalType": "string",
          "name": "Lat",
          "type": "string"
        },
        {
          "indexed": false,
          "internalType": "string",
          "name": "Long",
          "type": "string"
        },
        {
          "indexed": false,
          "internalType": "uint256",
          "name": "Units",
          "type": "uint256"
        },
        {
          "indexed": false,
          "internalType": "uint256",
          "name": "PricePerUnit",
          "type": "uint256"
        },
        {
          "indexed": false,
          "internalType": "string",
          "name": "desc",
          "type": "string"
        },
        {
          "indexed": false,
          "internalType": "uint256",
          "name": "timestamp",
          "type": "uint256"
        }
      ],
      "name": "SetupNode",
      "type": "event"
    },
    {
      "inputs": [],
      "name": "addVal",
      "outputs": [],
      "stateMutability": "nonpayable",
      "type": "function"
    },
    {
      "inputs": [],
      "name": "getAll",
      "outputs": [
        {
          "components": [
            {
              "internalType": "address",
              "name": "WalletAddress",
              "type": "address"
            },
            {
              "internalType": "string",
              "name": "Name",
              "type": "string"
            },
            {
              "internalType": "string",
              "name": "PlantAdress",
              "type": "string"
            },
            {
              "internalType": "string",
              "name": "Lat",
              "type": "string"
            },
            {
              "internalType": "string",
              "name": "Long",
              "type": "string"
            },
            {
              "internalType": "uint256",
              "name": "Revenue",
              "type": "uint256"
            },
            {
              "internalType": "uint256",
              "name": "NumberofSolarPannels",
              "type": "uint256"
            },
            {
              "internalType": "string",
              "name": "desc",
              "type": "string"
            },
            {
              "internalType": "uint256",
              "name": "timestamp",
              "type": "uint256"
            }
          ],
          "internalType": "struct Node.NodeStruct[]",
          "name": "",
          "type": "tuple[]"
        }
      ],
      "stateMutability": "view",
      "type": "function"
    },
    {
      "inputs": [],
      "name": "getCount",
      "outputs": [
        {
          "internalType": "uint256",
          "name": "",
          "type": "uint256"
        }
      ],
      "stateMutability": "view",
      "type": "function"
    }
  ],
  "bytecode": "0x6080604052600260005534801561001557600080fd5b50610b0b806100256000396000f3fe608060405234801561001057600080fd5b50600436106100415760003560e01c806353ed514314610046578063a87d942c14610064578063e733a6cf14610082575b600080fd5b61004e61008c565b60405161005b9190610919565b60405180910390f35b61006c61043a565b604051610079919061093b565b60405180910390f35b61008a610443565b005b60606001805480602002602001604051908101604052809291908181526020016000905b828210156104315783829060005260206000209060090201604051806101200160405290816000820160009054906101000a900473ffffffffffffffffffffffffffffffffffffffff1673ffffffffffffffffffffffffffffffffffffffff1673ffffffffffffffffffffffffffffffffffffffff16815260200160018201805461013a90610a1a565b80601f016020809104026020016040519081016040528092919081815260200182805461016690610a1a565b80156101b35780601f10610188576101008083540402835291602001916101b3565b820191906000526020600020905b81548152906001019060200180831161019657829003601f168201915b505050505081526020016002820180546101cc90610a1a565b80601f01602080910402602001604051908101604052809291908181526020018280546101f890610a1a565b80156102455780601f1061021a57610100808354040283529160200191610245565b820191906000526020600020905b81548152906001019060200180831161022857829003601f168201915b5050505050815260200160038201805461025e90610a1a565b80601f016020809104026020016040519081016040528092919081815260200182805461028a90610a1a565b80156102d75780601f106102ac576101008083540402835291602001916102d7565b820191906000526020600020905b8154815290600101906020018083116102ba57829003601f168201915b505050505081526020016004820180546102f090610a1a565b80601f016020809104026020016040519081016040528092919081815260200182805461031c90610a1a565b80156103695780601f1061033e57610100808354040283529160200191610369565b820191906000526020600020905b81548152906001019060200180831161034c57829003601f168201915b50505050508152602001600582015481526020016006820154815260200160078201805461039690610a1a565b80601f01602080910402602001604051908101604052809291908181526020018280546103c290610a1a565b801561040f5780601f106103e45761010080835404028352916020019161040f565b820191906000526020600020905b8154815290600101906020018083116103f257829003601f168201915b50505050508152602001600882015481525050815260200190600101906100b0565b50505050905090565b60008054905090565b6001604051806101200160405280736904a7e5497e8270afd9f9ee46321a9b0a75db5a73ffffffffffffffffffffffffffffffffffffffff1681526020016040518060400160405280600d81526020017f52616d657368205377616d6d79000000000000000000000000000000000000008152508152602001604051806060016040528060248152602001610ab26024913981526020016040518060400160405280600781526020017f31352e363537320000000000000000000000000000000000000000000000000081525081526020016040518060400160405280600781526020017f31332e353637310000000000000000000000000000000000000000000000000081525081526020016203bd088152602001600a8152602001604051806060016040528060258152602001610a8d60259139815260200142815250908060018154018082558091505060019003906000526020600020906009020160009091909190915060008201518160000160006101000a81548173ffffffffffffffffffffffffffffffffffffffff021916908373ffffffffffffffffffffffffffffffffffffffff160217905550602082015181600101908051906020019061060e9291906106a6565b50604082015181600201908051906020019061062b9291906106a6565b5060608201518160030190805190602001906106489291906106a6565b5060808201518160040190805190602001906106659291906106a6565b5060a0820151816005015560c0820151816006015560e08201518160070190805190602001906106969291906106a6565b5061010082015181600801555050565b8280546106b290610a1a565b90600052602060002090601f0160209004810192826106d4576000855561071b565b82601f106106ed57805160ff191683800117855561071b565b8280016001018555821561071b579182015b8281111561071a5782518255916020019190600101906106ff565b5b509050610728919061072c565b5090565b5b8082111561074557600081600090555060010161072d565b5090565b6000610755838361081a565b905092915050565b610766816109ab565b82525050565b600061077782610966565b6107818185610989565b93508360208202850161079385610956565b8060005b858110156107cf57848403895281516107b08582610749565b94506107bb8361097c565b925060208a01995050600181019050610797565b50829750879550505050505092915050565b60006107ec82610971565b6107f6818561099a565b93506108068185602086016109e7565b61080f81610a7b565b840191505092915050565b600061012083016000830151610833600086018261075d565b506020830151848203602086015261084b82826107e1565b9150506040830151848203604086015261086582826107e1565b9150506060830151848203606086015261087f82826107e1565b9150506080830151848203608086015261089982826107e1565b91505060a08301516108ae60a08601826108fb565b5060c08301516108c160c08601826108fb565b5060e083015184820360e08601526108d982826107e1565b9150506101008301516108f06101008601826108fb565b508091505092915050565b610904816109dd565b82525050565b610913816109dd565b82525050565b60006020820190508181036000830152610933818461076c565b905092915050565b6000602082019050610950600083018461090a565b92915050565b6000819050602082019050919050565b600081519050919050565b600081519050919050565b6000602082019050919050565b600082825260208201905092915050565b600082825260208201905092915050565b60006109b6826109bd565b9050919050565b600073ffffffffffffffffffffffffffffffffffffffff82169050919050565b6000819050919050565b60005b83811015610a055780820151818401526020810190506109ea565b83811115610a14576000848401525b50505050565b60006002820490506001821680610a3257607f821691505b60208210811415610a4657610a45610a4c565b5b50919050565b7f4e487b7100000000000000000000000000000000000000000000000000000000600052602260045260246000fd5b6000601f19601f830116905091905056fe48656c6c6f2c20796f752077696c6c2067657420436865617020456e6572677920486572654a2d3135362c20424c6f636b20322c2052616d616e616761722c204b61726e6174616b61a2646970667358221220e676b8346f5181855d18c88ac4a84fb200bfd2087047bd16d652a290bb41e8fd64736f6c63430008000033",
  "linkReferences": {},
  "deployedLinkReferences": {}
}