{
  "_format": "hh-sol-artifact-1",
  "contractName": "Node",
  "sourceName": "contracts/Node.sol",
  "abi": [
    {
      "anonymous": false,
      "inputs": [
        {
          "indexed": false,
          "internalType": "address",
          "name": "WalletAddress",
          "type": "address"
        },
        {
          "indexed": false,
          "internalType": "string",
          "name": "Name",
          "type": "string"
        },
        {
          "indexed": false,
          "internalType": "string",
          "name": "PlantAdress",
          "type": "string"
        },
        {
          "indexed": false,
          "internalType": "string",
          "name": "Lat",
          "type": "string"
        },
        {
          "indexed": false,
          "internalType": "string",
          "name": "Long",
          "type": "string"
        },
        {
          "indexed": false,
          "internalType": "uint256",
          "name": "Revenue",
          "type": "uint256"
        },
        {
          "indexed": false,
          "internalType": "uint256",
          "name": "NumberofSolarPannels",
          "type": "uint256"
        },
        {
          "indexed": false,
          "internalType": "string",
          "name": "desc",
          "type": "string"
        },
        {
          "indexed": false,
          "internalType": "uint256",
          "name": "timestamp",
          "type": "uint256"
        }
      ],
      "name": "SetupNode",
      "type": "event"
    },
    {
      "anonymous": false,
      "inputs": [
        {
          "indexed": false,
          "internalType": "uint256",
          "name": "Index",
          "type": "uint256"
        }
      ],
      "name": "UpdateRevenue",
      "type": "event"
    },
    {
      "inputs": [
        {
          "internalType": "address payable",
          "name": "WalletAddress",
          "type": "address"
        },
        {
          "internalType": "string",
          "name": "Name",
          "type": "string"
        },
        {
          "internalType": "string",
          "name": "PlantAdress",
          "type": "string"
        },
        {
          "internalType": "string",
          "name": "Lat",
          "type": "string"
        },
        {
          "internalType": "string",
          "name": "Long",
          "type": "string"
        },
        {
          "internalType": "uint256",
          "name": "Revenue",
          "type": "uint256"
        },
        {
          "internalType": "uint256",
          "name": "NumberofSolarPannels",
          "type": "uint256"
        },
        {
          "internalType": "string",
          "name": "desc",
          "type": "string"
        },
        {
          "internalType": "uint256",
          "name": "CarbonFootPrint",
          "type": "uint256"
        }
      ],
      "name": "addVal",
      "outputs": [],
      "stateMutability": "nonpayable",
      "type": "function"
    },
    {
      "inputs": [],
      "name": "getAll",
      "outputs": [
        {
          "components": [
            {
              "internalType": "address",
              "name": "WalletAddress",
              "type": "address"
            },
            {
              "internalType": "string",
              "name": "Name",
              "type": "string"
            },
            {
              "internalType": "string",
              "name": "PlantAdress",
              "type": "string"
            },
            {
              "internalType": "string",
              "name": "Lat",
              "type": "string"
            },
            {
              "internalType": "string",
              "name": "Long",
              "type": "string"
            },
            {
              "internalType": "uint256",
              "name": "Revenue",
              "type": "uint256"
            },
            {
              "internalType": "uint256",
              "name": "NumberofSolarPannels",
              "type": "uint256"
            },
            {
              "internalType": "string",
              "name": "desc",
              "type": "string"
            },
            {
              "internalType": "uint256",
              "name": "CarbonFootPrint",
              "type": "uint256"
            },
            {
              "internalType": "uint256",
              "name": "timestamp",
              "type": "uint256"
            }
          ],
          "internalType": "struct Node.NodeStruct[]",
          "name": "",
          "type": "tuple[]"
        }
      ],
      "stateMutability": "view",
      "type": "function"
    },
    {
      "inputs": [],
      "name": "getCount",
      "outputs": [
        {
          "internalType": "uint256",
          "name": "",
          "type": "uint256"
        }
      ],
      "stateMutability": "view",
      "type": "function"
    },
    {
      "inputs": [
        {
          "internalType": "address payable",
          "name": "WalletAddress",
          "type": "address"
        },
        {
          "internalType": "string",
          "name": "Name",
          "type": "string"
        },
        {
          "internalType": "string",
          "name": "PlantAdress",
          "type": "string"
        },
        {
          "internalType": "string",
          "name": "Lat",
          "type": "string"
        },
        {
          "internalType": "string",
          "name": "Long",
          "type": "string"
        },
        {
          "internalType": "uint256",
          "name": "Revenue",
          "type": "uint256"
        },
        {
          "internalType": "uint256",
          "name": "NumberofSolarPannels",
          "type": "uint256"
        },
        {
          "internalType": "string",
          "name": "desc",
          "type": "string"
        },
        {
          "internalType": "uint256",
          "name": "CarbonFootPrint",
          "type": "uint256"
        },
        {
          "internalType": "uint256",
          "name": "Index",
          "type": "uint256"
        }
      ],
      "name": "updateCarbonFootPrint",
      "outputs": [],
      "stateMutability": "nonpayable",
      "type": "function"
    },
    {
      "inputs": [
        {
          "internalType": "address payable",
          "name": "WalletAddress",
          "type": "address"
        },
        {
          "internalType": "string",
          "name": "Name",
          "type": "string"
        },
        {
          "internalType": "string",
          "name": "PlantAdress",
          "type": "string"
        },
        {
          "internalType": "string",
          "name": "Lat",
          "type": "string"
        },
        {
          "internalType": "string",
          "name": "Long",
          "type": "string"
        },
        {
          "internalType": "uint256",
          "name": "Revenue",
          "type": "uint256"
        },
        {
          "internalType": "uint256",
          "name": "NumberofSolarPannels",
          "type": "uint256"
        },
        {
          "internalType": "string",
          "name": "desc",
          "type": "string"
        },
        {
          "internalType": "uint256",
          "name": "CarbonFootPrint",
          "type": "uint256"
        },
        {
          "internalType": "uint256",
          "name": "Index",
          "type": "uint256"
        }
      ],
      "name": "updateRevenue",
      "outputs": [],
      "stateMutability": "nonpayable",
      "type": "function"
    }
  ],
  "bytecode": "0x60806040526000805534801561001457600080fd5b50611ba8806100246000396000f3fe608060405234801561001057600080fd5b50600436106100575760003560e01c806353ed51431461005c5780636d96d5601461007a578063804c13e314610096578063a87d942c146100b2578063d6b812b5146100d0575b600080fd5b6100646100ec565b60405161007191906117c0565b60405180910390f35b610094600480360381019061008f9190611390565b6104a4565b005b6100b060048036038101906100ab9190611390565b610981565b005b6100ba610e6a565b6040516100c791906117e2565b60405180910390f35b6100ea60048036038101906100e59190611252565b610e73565b005b60606001805480602002602001604051908101604052809291908181526020016000905b8282101561049b57838290600052602060002090600a0201604051806101400160405290816000820160009054906101000a900473ffffffffffffffffffffffffffffffffffffffff1673ffffffffffffffffffffffffffffffffffffffff1673ffffffffffffffffffffffffffffffffffffffff16815260200160018201805461019a90611a45565b80601f01602080910402602001604051908101604052809291908181526020018280546101c690611a45565b80156102135780601f106101e857610100808354040283529160200191610213565b820191906000526020600020905b8154815290600101906020018083116101f657829003601f168201915b5050505050815260200160028201805461022c90611a45565b80601f016020809104026020016040519081016040528092919081815260200182805461025890611a45565b80156102a55780601f1061027a576101008083540402835291602001916102a5565b820191906000526020600020905b81548152906001019060200180831161028857829003601f168201915b505050505081526020016003820180546102be90611a45565b80601f01602080910402602001604051908101604052809291908181526020018280546102ea90611a45565b80156103375780601f1061030c57610100808354040283529160200191610337565b820191906000526020600020905b81548152906001019060200180831161031a57829003601f168201915b5050505050815260200160048201805461035090611a45565b80601f016020809104026020016040519081016040528092919081815260200182805461037c90611a45565b80156103c95780601f1061039e576101008083540402835291602001916103c9565b820191906000526020600020905b8154815290600101906020018083116103ac57829003601f168201915b5050505050815260200160058201548152602001600682015481526020016007820180546103f690611a45565b80601f016020809104026020016040519081016040528092919081815260200182805461042290611a45565b801561046f5780601f106104445761010080835404028352916020019161046f565b820191906000526020600020905b81548152906001019060200180831161045257829003601f168201915b505050505081526020016008820154815260200160098201548152505081526020019060010190610110565b50505050905090565b60016040518061014001604052808c73ffffffffffffffffffffffffffffffffffffffff1681526020018b81526020018a81526020018981526020018881526020018760018581548110610521577f4e487b7100000000000000000000000000000000000000000000000000000000600052603260045260246000fd5b90600052602060002090600a02016005015461053d91906118c4565b81526020018681526020018581526020018481526020014281525090806001815401808255809150506001900390600052602060002090600a020160009091909190915060008201518160000160006101000a81548173ffffffffffffffffffffffffffffffffffffffff021916908373ffffffffffffffffffffffffffffffffffffffff16021790555060208201518160010190805190602001906105e4929190611050565b506040820151816002019080519060200190610601929190611050565b50606082015181600301908051906020019061061e929190611050565b50608082015181600401908051906020019061063b929190611050565b5060a0820151816005015560c0820151816006015560e082015181600701908051906020019061066c929190611050565b506101008201518160080155610120820151816009015550506001808080549050610697919061194b565b815481106106ce577f4e487b7100000000000000000000000000000000000000000000000000000000600052603260045260246000fd5b90600052602060002090600a020160018281548110610716577f4e487b7100000000000000000000000000000000000000000000000000000000600052603260045260246000fd5b90600052602060002090600a02016000820160009054906101000a900473ffffffffffffffffffffffffffffffffffffffff168160000160006101000a81548173ffffffffffffffffffffffffffffffffffffffff021916908373ffffffffffffffffffffffffffffffffffffffff160217905550600182018160010190805461079f90611a45565b6107aa9291906110d6565b5060028201816002019080546107bf90611a45565b6107ca9291906110d6565b5060038201816003019080546107df90611a45565b6107ea9291906110d6565b5060048201816004019080546107ff90611a45565b61080a9291906110d6565b506005820154816005015560068201548160060155600782018160070190805461083390611a45565b61083e9291906110d6565b506008820154816008015560098201548160090155905050600180548061088e577f4e487b7100000000000000000000000000000000000000000000000000000000600052603160045260246000fd5b60019003818190600052602060002090600a0201600080820160006101000a81549073ffffffffffffffffffffffffffffffffffffffff02191690556001820160006108da9190611163565b6002820160006108ea9190611163565b6003820160006108fa9190611163565b60048201600061090a9190611163565b6005820160009055600682016000905560078201600061092a9190611163565b60088201600090556009820160009055505090557f487ed9902e4c0a626036dd4513fdf2d43634a7e6928b0d4ab8845b108f87a0058160405161096d91906117e2565b60405180910390a150505050505050505050565b60016040518061014001604052808c73ffffffffffffffffffffffffffffffffffffffff1681526020018b81526020018a815260200189815260200188815260200187815260200186815260200185815260200160028560018681548110610a12577f4e487b7100000000000000000000000000000000000000000000000000000000600052603260045260246000fd5b90600052602060002090600a020160080154610a2e91906118c4565b610a38919061191a565b81526020014281525090806001815401808255809150506001900390600052602060002090600a020160009091909190915060008201518160000160006101000a81548173ffffffffffffffffffffffffffffffffffffffff021916908373ffffffffffffffffffffffffffffffffffffffff1602179055506020820151816001019080519060200190610acd929190611050565b506040820151816002019080519060200190610aea929190611050565b506060820151816003019080519060200190610b07929190611050565b506080820151816004019080519060200190610b24929190611050565b5060a0820151816005015560c0820151816006015560e0820151816007019080519060200190610b55929190611050565b506101008201518160080155610120820151816009015550506001808080549050610b80919061194b565b81548110610bb7577f4e487b7100000000000000000000000000000000000000000000000000000000600052603260045260246000fd5b90600052602060002090600a020160018281548110610bff577f4e487b7100000000000000000000000000000000000000000000000000000000600052603260045260246000fd5b90600052602060002090600a02016000820160009054906101000a900473ffffffffffffffffffffffffffffffffffffffff168160000160006101000a81548173ffffffffffffffffffffffffffffffffffffffff021916908373ffffffffffffffffffffffffffffffffffffffff1602179055506001820181600101908054610c8890611a45565b610c939291906110d6565b506002820181600201908054610ca890611a45565b610cb39291906110d6565b506003820181600301908054610cc890611a45565b610cd39291906110d6565b506004820181600401908054610ce890611a45565b610cf39291906110d6565b5060058201548160050155600682015481600601556007820181600701908054610d1c90611a45565b610d279291906110d6565b5060088201548160080155600982015481600901559050506001805480610d77577f4e487b7100000000000000000000000000000000000000000000000000000000600052603160045260246000fd5b60019003818190600052602060002090600a0201600080820160006101000a81549073ffffffffffffffffffffffffffffffffffffffff0219169055600182016000610dc39190611163565b600282016000610dd39190611163565b600382016000610de39190611163565b600482016000610df39190611163565b60058201600090556006820160009055600782016000610e139190611163565b60088201600090556009820160009055505090557f487ed9902e4c0a626036dd4513fdf2d43634a7e6928b0d4ab8845b108f87a00581604051610e5691906117e2565b60405180910390a150505050505050505050565b60008054905090565b60016040518061014001604052808b73ffffffffffffffffffffffffffffffffffffffff1681526020018a81526020018981526020018881526020018781526020018681526020018581526020018481526020018381526020014281525090806001815401808255809150506001900390600052602060002090600a020160009091909190915060008201518160000160006101000a81548173ffffffffffffffffffffffffffffffffffffffff021916908373ffffffffffffffffffffffffffffffffffffffff1602179055506020820151816001019080519060200190610f5d929190611050565b506040820151816002019080519060200190610f7a929190611050565b506060820151816003019080519060200190610f97929190611050565b506080820151816004019080519060200190610fb4929190611050565b5060a0820151816005015560c0820151816006015560e0820151816007019080519060200190610fe5929190611050565b506101008201518160080155610120820151816009015550507f6b930d45a73134f7ff550999449d53ef55ba8684f3e9b4dd9397f38811b6fa5f89898989898989894260405161103d99989796959493929190611710565b60405180910390a1505050505050505050565b82805461105c90611a45565b90600052602060002090601f01602090048101928261107e57600085556110c5565b82601f1061109757805160ff19168380011785556110c5565b828001600101855582156110c5579182015b828111156110c45782518255916020019190600101906110a9565b5b5090506110d291906111a3565b5090565b8280546110e290611a45565b90600052602060002090601f0160209004810192826111045760008555611152565b82601f106111155780548555611152565b8280016001018555821561115257600052602060002091601f016020900482015b82811115611151578254825591600101919060010190611136565b5b50905061115f91906111a3565b5090565b50805461116f90611a45565b6000825580601f1061118157506111a0565b601f01602090049060005260206000209081019061119f91906111a3565b5b50565b5b808211156111bc5760008160009055506001016111a4565b5090565b60006111d36111ce8461182e565b6117fd565b9050828152602081018484840111156111eb57600080fd5b6111f6848285611a03565b509392505050565b60008135905061120d81611b44565b92915050565b600082601f83011261122457600080fd5b81356112348482602086016111c0565b91505092915050565b60008135905061124c81611b5b565b92915050565b60008060008060008060008060006101208a8c03121561127157600080fd5b600061127f8c828d016111fe565b99505060208a013567ffffffffffffffff81111561129c57600080fd5b6112a88c828d01611213565b98505060408a013567ffffffffffffffff8111156112c557600080fd5b6112d18c828d01611213565b97505060608a013567ffffffffffffffff8111156112ee57600080fd5b6112fa8c828d01611213565b96505060808a013567ffffffffffffffff81111561131757600080fd5b6113238c828d01611213565b95505060a06113348c828d0161123d565b94505060c06113458c828d0161123d565b93505060e08a013567ffffffffffffffff81111561136257600080fd5b61136e8c828d01611213565b9250506101006113808c828d0161123d565b9150509295985092959850929598565b6000806000806000806000806000806101408b8d0312156113b057600080fd5b60006113be8d828e016111fe565b9a505060208b013567ffffffffffffffff8111156113db57600080fd5b6113e78d828e01611213565b99505060408b013567ffffffffffffffff81111561140457600080fd5b6114108d828e01611213565b98505060608b013567ffffffffffffffff81111561142d57600080fd5b6114398d828e01611213565b97505060808b013567ffffffffffffffff81111561145657600080fd5b6114628d828e01611213565b96505060a06114738d828e0161123d565b95505060c06114848d828e0161123d565b94505060e08b013567ffffffffffffffff8111156114a157600080fd5b6114ad8d828e01611213565b9350506101006114bf8d828e0161123d565b9250506101206114d18d828e0161123d565b9150509295989b9194979a5092959850565b60006114ef83836115fc565b905092915050565b611500816119cd565b82525050565b61150f8161197f565b82525050565b60006115208261186e565b61152a8185611891565b93508360208202850161153c8561185e565b8060005b85811015611578578484038952815161155985826114e3565b945061156483611884565b925060208a01995050600181019050611540565b50829750879550505050505092915050565b600061159582611879565b61159f81856118a2565b93506115af818560208601611a12565b6115b881611b33565b840191505092915050565b60006115ce82611879565b6115d881856118b3565b93506115e8818560208601611a12565b6115f181611b33565b840191505092915050565b6000610140830160008301516116156000860182611506565b506020830151848203602086015261162d828261158a565b91505060408301518482036040860152611647828261158a565b91505060608301518482036060860152611661828261158a565b9150506080830151848203608086015261167b828261158a565b91505060a083015161169060a08601826116f2565b5060c08301516116a360c08601826116f2565b5060e083015184820360e08601526116bb828261158a565b9150506101008301516116d26101008601826116f2565b506101208301516116e76101208601826116f2565b508091505092915050565b6116fb816119c3565b82525050565b61170a816119c3565b82525050565b600061012082019050611726600083018c6114f7565b8181036020830152611738818b6115c3565b9050818103604083015261174c818a6115c3565b9050818103606083015261176081896115c3565b9050818103608083015261177481886115c3565b905061178360a0830187611701565b61179060c0830186611701565b81810360e08301526117a281856115c3565b90506117b2610100830184611701565b9a9950505050505050505050565b600060208201905081810360008301526117da8184611515565b905092915050565b60006020820190506117f76000830184611701565b92915050565b6000604051905081810181811067ffffffffffffffff8211171561182457611823611b04565b5b8060405250919050565b600067ffffffffffffffff82111561184957611848611b04565b5b601f19601f8301169050602081019050919050565b6000819050602082019050919050565b600081519050919050565b600081519050919050565b6000602082019050919050565b600082825260208201905092915050565b600082825260208201905092915050565b600082825260208201905092915050565b60006118cf826119c3565b91506118da836119c3565b9250827fffffffffffffffffffffffffffffffffffffffffffffffffffffffffffffffff0382111561190f5761190e611a77565b5b828201905092915050565b6000611925826119c3565b9150611930836119c3565b9250826119405761193f611aa6565b5b828204905092915050565b6000611956826119c3565b9150611961836119c3565b92508282101561197457611973611a77565b5b828203905092915050565b600061198a826119a3565b9050919050565b600061199c826119a3565b9050919050565b600073ffffffffffffffffffffffffffffffffffffffff82169050919050565b6000819050919050565b60006119d8826119df565b9050919050565b60006119ea826119f1565b9050919050565b60006119fc826119a3565b9050919050565b82818337600083830152505050565b60005b83811015611a30578082015181840152602081019050611a15565b83811115611a3f576000848401525b50505050565b60006002820490506001821680611a5d57607f821691505b60208210811415611a7157611a70611ad5565b5b50919050565b7f4e487b7100000000000000000000000000000000000000000000000000000000600052601160045260246000fd5b7f4e487b7100000000000000000000000000000000000000000000000000000000600052601260045260246000fd5b7f4e487b7100000000000000000000000000000000000000000000000000000000600052602260045260246000fd5b7f4e487b7100000000000000000000000000000000000000000000000000000000600052604160045260246000fd5b6000601f19601f8301169050919050565b611b4d81611991565b8114611b5857600080fd5b50565b611b64816119c3565b8114611b6f57600080fd5b5056fea2646970667358221220ebd1a59c0a8366adf39250326ec6f67cb67a4774735588a8265447b8bd825ab864736f6c63430008000033",
  "linkReferences": {},
  "deployedLinkReferences": {}
}